:020000040800F2
:10000000600400209D0100083F100008850F0008D3
:100010003D100008D10300080D1100080000000089
:100020000000000000000000000000004310000875
:10003000D30300080000000041100008451000082C
:10004000B7010008B7010008B7010008B7010008B0
:10005000B7010008B7010008B7010008B7010008A0
:10006000B7010008B7010008B7010008B701000890
:10007000B7010008B7010008B7010008B701000880
:10008000B7010008B7010008B7010008B701000870
:10009000B7010008B7010008B7010008B701000860
:1000A000B7010008B7010008B7010008B701000850
:1000B000B7010008B7010008B7010008B701000840
:1000C000B7010008B7010008B7010008B701000830
:1000D000B7010008B7010008B7010008B701000820
:1000E000B7010008B7010008B7010008B701000810
:1000F000B7010008B7010008B7010008B701000800
:10010000B7010008B7010008B7010008B7010008EF
:10011000B7010008B7010008B7010008B7010008DF
:10012000B7010008B7010008B7010008B7010008CF
:10013000B7010008B7010008B7010008B7010008BF
:10014000B7010008B7010008B7010008B7010008AF
:10015000B7010008B7010008B7010008B70100089F
:10016000B7010008B7010008B7010008B70100088F
:10017000B7010008B7010008B7010008000000003F
:10018000B7010008B7010008DFF80CD000F07AF8DA
:10019000004800474D1100086004002006488047D1
:1001A00006480047FEE7FEE7FEE7FEE7FEE7FEE75C
:1001B000FEE7FEE7FEE7FEE7B91000088901000848
:1001C0002DE9F05F0546002092469B46884606468C
:1001D000814640241BE0284641464746224600F01F
:1001E00041F853465A46C01A914110D31146184659
:1001F000224600F028F82D1A67EB01084F462246E8
:100200000120002100F01FF817EB00094E41201ECD
:10021000A4F10104DFDC484631462A464346BDE8E6
:10022000F09FD2B201E000F8012B491EFBD27047CB
:100230000022F6E710B513460A4604461946FFF7B2
:10024000F0FF204610BD202A04DB203A00FA02F11C
:10025000002070479140C2F1200320FA03F31943B4
:1002600090407047202A04DB203A21FA02F0002156
:10027000704721FA02F3D040C2F1200291400843B6
:1002800019467047064C074D06E0E06840F0010350
:1002900094E8070098471034AC42F6D3FFF778FF94
:1002A0009C110008BC110008464910B54A6822F4A8
:1002B00040324A604A6843681A434A6001684A68A3
:1002C00022F480724A6001684A68036942EA0322A4
:1002D0004A6001684A6822F040724A6001684A68D0
:1002E00083681A434A6001688A6822F400628A605F
:1002F00001688A68C3681A438A60816A6FF0706215
:10030000D14201688A6822F070628A6001688A6856
:100310000CD0836A1A438A6001688A6822F04052CE
:100320008A6001688A68C36A1A4301E022F0405279
:100330008A6001688A6822F002028A6001688A681D
:10034000037E42EA43028A6090F820100029016887
:100350004A680FD042F400624A6001684A6822F499
:1003600060424A6001684A68174C436A04EB4333B1
:100370001A4301E022F400624A600168CA6A22F46A
:100380007002CA620168CA6A838B104C04EB035383
:100390001A43CA6201688A6822F400728A6001689E
:1003A0008A6890F8303042EA43228A6001688A689D
:1003B00022F480628A6001688A68406942EA80208B
:1003C000886010BD0023014000E0FFFF0000F0FF47
:1003D000FEE7704778B50024009490F83C20012A8D
:1003E00019D0012280F83C200A6807230568092AF1
:1003F00013D9EE680A3A02EB420293409E43EE6044
:100400000B788A680A3B03EB43039A400368DD6874
:100410002A43DA6010E0022078BD2E6902EB420226
:1004200093409E432E610B788A6803EB43039A4006
:1004300003681D692A431A614A681F23072A13D2D9
:1004400005686E6B521E02EB820293409E436E6300
:100450000B790A885B1E92B203EB83039A40036810
:100460005D6B2A435A6327E005680D2A12D22E6B72
:10047000D21F02EB820293409E432E630B790A88BF
:10048000DB1F92B203EB83039A4003681D6B2A4380
:100490001A6311E0EE6A0D3A02EB820293409E432A
:1004A000EE620B790A880D3B92B203EB83039A400C
:1004B0000368DD6A2A43DA62164B0568144A9D42D6
:1004C00006D10D68122D03D1556845F4800555609D
:1004D00005689D4218D10B68102B01D0112B13D148
:1004E000536843F400035360096810290CD10A498A
:1004F0000A4A0968B1FBF2F101EB8101490000E011
:10050000491E00910029FBD180F83C40002078BDB5
:1005100000230140002001401000002040420F0055
:100520000068C06C704770B504004FF0000503D040
:10053000206C002610B107E0012070BD204600F0BD
:100540001DF8666484F83C60206CC00610D4206CF2
:1005500020F4885040F0020020642046FFF7A4FEFB
:100560006664206C20F0020040F00100206400E08E
:10057000012584F83C60284670BD000010B586B0A7
:10058000044614216846FFF753FE1149206888424B
:100590001CD110480021026842F480720260006899
:1005A00000F4807005900B481438026842F0010294
:1005B0000260006800F00100059001200090032017
:1005C000CDE901016946044800F000F906B010BD0C
:1005D0000020014044380240000002402DE9F04173
:1005E000044600680D4681684FF0000749050BD5A9
:1005F0008068C00508D5206C40F02000206484F895
:100600003C700120BDE8F08100F0BEF906460FE025
:10061000681C0DD025B100F0B7F9801BA84207D99E
:10062000206C40F00400206484F83C700320E9E76B
:10063000206800688007EBD521686FF01200086021
:10064000206C40F4007020642068816811F0405FE5
:1006500013D1217E89B9C16A11F4700F02D080686C
:1006600040050AD4206C20F480702064206CC00403
:1006700003D4206C40F0010020640020C2E7000099
:1006800018B50021009190F83C20012A07D00122E2
:1006900080F83C2002689368DB0702D011E002205A
:1006A00018BD936843F0010393602A4A2A4B1268ED
:1006B000B2FBF3F202EB420200E0521E0092002A6B
:1006C000FBD102689368DB0741D0036C40F2016400
:1006D000A34343F48073036453685B0505D5036C3F
:1006E00023F4005343F480530364036CDB0404D508
:1006F000436C23F00603436400E0416480F83C103F
:1007000016496FF02203136049680068CA0614494D
:1007100006D088421BD1816811F0405F13D016E0EB
:100720008842F8D00F4A904203D1D1F80423D20670
:10073000F1D00D4A90420AD1D1F8041301F01F0103
:100740001029E8D303E0816841F0804181600020F6
:1007500018BD00001000002040420F00002301409F
:1007600000200140002101400022014090F83C108F
:1007700001290CD0012180F83C1001688A6822F020
:1007800001028A6001688968C90702D007E0022077
:100790007047016C21F4885141F00101016400218E
:1007A00080F83C100846704770B5044600F0ECF83D
:1007B0000546601C02D004480078044400F0E4F8C8
:1007C000401BA042FAD370BD040000202DE9F84F71
:1007D000DFF87CB100224FF001084FF0030A4FF020
:1007E0000F090BF1040E00BF0B6808FA02F4234056
:1007F000A3426ED14D68022D01D0122D0ED1D50825
:1008000000EB850CDCF820505607F70E09FA07F6C6
:10081000B5430E69BE402E43CCF8206006685500F3
:100820000F790AFA05FC07F0030726EA0C06AF4029
:10083000374307604E68012E05D0022E03D0112EDB
:1008400001D0122E0ED18668CF6826EA0C06AF4082
:10085000374387604668A6430C79C4F3001494407C
:1008600034434460C6688C6826EA0C06AC403443C6
:10087000C4604C68E40065D5364C256845F4804575
:100880002560246822F0030504F480440094324C6F
:100890002E19D6F8084895072F0F09FA07F5AC432B
:1008A0002E4DA84201D1002524E02D4DA84201D1B2
:1008B00001251FE02B4DA84201D102251AE02A4D47
:1008C000A84201D1032515E0284DA84202D10425F4
:1008D00010E037E0264DA84201D105250AE0254D5C
:1008E000A84201D1062505E0234DA84201D10725E4
:1008F00000E00825BD402543C6F80858DBF8004055
:100900005D464E689C43F60300D51C432C60DEF820
:10091000004075464E689C43B60300D51C432C60CE
:100920000B4D08352C684E689C43F60200D51C43DD
:100930002C60074D0C352C684E689C43B60200D5E0
:100940001C432C60521C102AFFF44EAFBDE8F88FF8
:10095000003C0140443802400030014000000240A9
:100960000004024000080240000C02400010024057
:100970000014024000180240001C02400AB18161CC
:1009800070470904FBE700000148806870470000D9
:100990000400002002488168027811448160704799
:1009A000040000200B4810B5016841F4007101609B
:1009B000016841F480610160016841F48071016067
:1009C000032000F061F8002000F006F800F024F8A1
:1009D000002010BD003C024070B50D4D04464FF4A0
:1009E0007A712878B1FBF0F00A490968B1FBF0F0A0
:1009F00000F0B4FA48B9102C07D200222146501E4C
:100A000000F022F800206C6070BD012070BD000075
:100A100004000020100000200A4808B5016841F4D5
:100A200080410160006800F4804000900548001F8C
:100A3000016841F080510160006800F08050009032
:100A400008BD000044380240F0B40E4B1B680C4651
:100A5000C3F30223C3F10705042D00D90425191D92
:100A6000072901D2002300E0DB1E012606FA05F16A
:100A7000491E214099409E40761E16403143F0BCED
:100A800000F045BB0CED00E0064900F007020868E5
:100A90004FF6FF03184040EA0220034A1043086063
:100AA000704700000CED00E00000FA052DE9F0476A
:100AB0000E46050065D0DFF81481D8F80000F7B2C3
:100AC00000F00F00B04207D288F80070D8F800009C
:100AD00000F00F00B04254D128683D4C810712D578
:100AE000400703D5206840F4E050206028780007D4
:100AF00003D5206840F4604020602068A96820F099
:100B0000F000084320602878C0072DD0304968687D
:100B10000839012812D0022813D0032811D00968FF
:100B2000890700292DDA216821F0030101432160A2
:100B3000FFF72AFF814641F2883A0EE009688903EF
:100B4000EFE709688901ECE7FFF71EFFA0EB090159
:100B5000514502D90320BDE8F0872068696800F09C
:100B60000C00B0EB810FEFD1D8F80010404601F037
:100B70000F01B14207D90770006800F00F00B042C2
:100B800001D00120E7E72878400705D52068E9680B
:100B900020F4E050084320602878000706D520683C
:100BA000296920F4604040EAC100206000F016F896
:100BB0002168084AC1F30311515CC8400649086026
:100BC0000020FFF709FF0020C5E70000003C0240BD
:100BD000083802408C11000810000020154810B59C
:100BE000006810F00C02144813D01449042A0FD0E6
:100BF000082A0ED10F4C241F2268236802F03F02FE
:100C00005B0207D52068C0F38810A0FB010106E055
:100C1000084610BD2168C1F38811A1FB0001002323
:100C2000FFF7CEFA2168C1F30141491C4900B0FB2E
:100C3000F1F010BD083802400024F40040787D0136
:100C40002DE9F84F050076D02878DFF8F8B2BE4CD1
:100C5000C00749D0DBF800105846C1F381010129D3
:100C600008D00068C0F3810002280AD1201D006866
:100C7000400206D52068800336D568680028E2D097
:100C800032E06868B0F5803F10D0B0F5A02F206842
:100C900010D020F480302060206820F48020206074
:100CA0006868A0B1FFF770FE06460CE0206840F4CB
:100CB0008030F4E740F480202060F7E7FFF764FE1F
:100CC000801B642873D820688003F7D50CE0FFF7F9
:100CD0005BFE064605E000BFFFF756FE801B64285A
:100CE000F0D820688003F7D42878DFF86082800786
:100CF0004FF000093ED5DBF80010584611F00C0FFC
:100D000009D00068C0F3810002280BD18D48001F74
:100D10000068400206D42068800715D5E8680128DD
:100D200009D111E0E868B8B10120C8F80000FFF768
:100D30002BFE064605E002E1FFF726FE801B022897
:100D4000C0D820688007F7D52068296920F0F8000E
:100D500040EAC10020600DE0C8F80090FFF714FEE3
:100D6000064604E0FFF710FE801B02281FD820680B
:100D70008007F7D42878000722D5724E7448696935
:100D80006C3671B101210160FFF7FEFD074604E0FA
:100D9000FFF7FAFDC01B022809D830688007F7D595
:100DA0000EE0C0F80090FFF7EFFD074605E083E096
:100DB000FFF7EAFDC01B02287ED830688007F7D411
:100DC0002878400768D5DFF87CA100270AF1380AA7
:100DD000DAF80000C0000BD4DAF8001041F08051BE
:100DE000CAF80010DAF80000012700F080500090E7
:100DF000584E3068C00510D4306840F480703060C0
:100E0000FFF7C2FD009005E0FFF7BEFD0099401A14
:100E1000022851D83068C005F6D54A4EA868683611
:100E200001280FD00528306810D020F00100306074
:100E3000306820F004003060A868B8B1FFF7A4FD66
:100E400000900FE0306840F00100F4E740F004004B
:100E50003060F7E7FFF798FD0099411A41F28830BA
:100E6000814264D830688007F4D50EE0FFF78CFD2E
:100E7000009007E0FFF788FD0099411A41F28830A1
:100E8000814254D830688007F4D42FB1DAF80010CA
:100E900021F08051CAF80010A869C0B3DBF8001037
:100EA000C1F3810102294AD00228484607D0C8F878
:100EB0006000FFF769FD00E039E005463AE047468B
:100EC000C8F86000FFF760FD064604E0FFF75CFD30
:100ED000801B02282BD820688001F7D4D5E90701B0
:100EE0000843A96A1C4A490802EB01416A6A41EABF
:100EF0008211084395F82C1040EA01611148001F47
:100F0000016001203866FFF73FFD054605E014E06B
:100F1000FFF73AFD401B022809D820688001F7D569
:100F20000BE000BFFFF730FD401B022802D9032071
:100F3000BDE8F88F20688001F4D40020F8E7012094
:100F4000F6E700000838024000380240000047423F
:100F5000800E4742007000400000FFFF10B5401EA9
:100F6000B0F1807F01D3012010BD4FF0E02460611B
:100F70000F21601700F0CBF80020A061072020614E
:100F8000002010BDFEE700007FB50024114800944A
:100F9000019402940E490394C0E900144FF00071CB
:100FA00004618160047680F820400B49C0E90A148E
:100FB0000125C561C46080F830404561FFF7B3FA90
:100FC000CDE90045694603480294FFF703FA7FBD67
:100FD00000200140140000200100000F70B586B011
:100FE00014216846FFF724F912480024016841F0F3
:100FF00001010160016801F001010591016841F002
:101000000801016000680C4E00F008004FF47045C4
:101010000590224629463046FFF7B0FC0120009596
:10102000CDE90104694630460394FFF7CFFB06B0D3
:1010300070BD000030380240000C0240FEE77047EF
:1010400070477047FFF7A6BC10B592B030216846D4
:10105000FFF7EEF814210CA8FFF7EAF81448002473
:10106000016841F080510160006800F080501190EB
:101070001048016841F4804101600068069400F462
:1010800080401190022000900120039010200490D5
:101090006846FFF7D5FD0F20CDE90C040E940F94A0
:1010A00000210CA81094FFF701FD12B010BD000044
:1010B00040380240007000401048016841F470015F
:1010C00001600F48016841F0010101600C4A0021F4
:1010D0000832116002680B4B1A400260031D0A4A75
:1010E0001A60026822F48022026005480C30016018
:1010F00002495806803908607047000088ED00E01A
:1011000000380240FFFFF6FE10300024FEE709071A
:10111000090E002804DB00F1E02080F8001470477D
:1011200000F00F0000F1E02080F8141D704702E08D
:1011300008C8121F08C1002AFAD170477047002062
:1011400001E001C1121F002AFBD17047FFF72AFC02
:10115000FFF77AFFFFF742FFFFF716FF094C0A4837
:10116000FFF78EFA05210848FFF738FA18B9064844
:10117000FFF7D6F920600448FFF7F8FA6420FFF77C
:1011800013FBECE70000002014000020000000002A
:10119000000000000102030406070809BC11000852
:1011A00000000020140000002E110008D0110008DB
:1011B000140000204C0400003E1100080000000054
:1011C0000100000010000000000000000024F400F6
:040000050800018965
:00000001FF
